:020000040800F2
:1000000028040120DD010008E5010008E7010008DF
:10001000E9010008EB010008ED0100080000000004
:10002000000000000000000000000000EF010008D8
:10003000F101000800000000F3010008C1070008FA
:10004000F7010008F7010008F7010008F7010008B0
:10005000F7010008F7010008F7010008750700081C
:10006000F7010008F7010008F7010008F701000890
:10007000F7010008F7010008F7010008F701000880
:10008000F7010008F7010008F7010008F701000870
:10009000F7010008F7010008F7010008F701000860
:1000A000F7010008F7010008F7010008F701000850
:1000B000F7010008F7010008F7010008F701000840
:1000C000F7010008F7010008F7010008F701000830
:1000D000F7010008F7010008F7010008F701000820
:1000E000F7010008F7010008F7010008F701000810
:1000F000F7010008F7010008F7010008F701000800
:10010000F7010008F7010008F7010008F7010008EF
:10011000F7010008F7010008F7010008F7010008DF
:10012000F7010008F7010008F7010008F7010008CF
:10013000F7010008F7010008F7010008F7010008BF
:10014000F7010008F7010008F7010008F7010008AF
:10015000F7010008F7010008F7010008F70100089F
:10016000F7010008F7010008F7010008F70100088F
:10017000F7010008F7010008F7010008000000007F
:10018000F7010008F7010008F7010008F70100086F
:10019000F7010008F7010008F7010008F70100085F
:1001A000F7010008F7010008F7010008F70100084F
:1001B000F7010008F7010008F7010008F70100083F
:1001C000F7010008F7010008DFF80CD000F05EFA34
:1001D00000480047451800082804012006488047C9
:1001E00006480047FEE7FEE7FEE7FEE7FEE7FEE71C
:1001F000FEE7FEE7FEE7FEE7D9080008C9010008B0
:100200002DE9FE4F804681EA0300C00F0C460090A6
:1002100021F0004123F00045B8EB0200A94105D2CE
:100220004046214690461C460B46024623F00040BD
:10023000104347D0270DC7F30A00C3F30A510290B9
:10024000401A019040286BDAC3F3130040F4801B7E
:100250000098924620B10023D2EB030A63EB0B0B0C
:1002600001985946C0F14002504600F0F3F80646A6
:100270000D4650465946019A00F0FBF810EB080075
:100280006141002487EA115284EAE7731A4340D09F
:10029000009A62B3019A012A4FEA075215DC001B4B
:1002A00061EB02014FF0004202EA0752CDE9004241
:1002B000001C41F5801132462B4600F0FBF803B0DC
:1002C000BDE8F08F40462146F9E7001B61EB0201D3
:1002D000001C41F5801300185B412018A2F500179F
:1002E00047EB030140EAD570B6196D4111E06D0886
:1002F0004FEA360645EAC0754FEA0752001B61EB2C
:100300000201001C41F5801149084FEA3000001934
:10031000514132462B4603B0BDE8F04F00F0BBB868
:100320000098012240000023D0EB020263EBE0734F
:10033000009821464FEAE074B8EB000061EB04013D
:10034000E9E783F000435BE781F0004158E72DE9DE
:10035000FE4F81EA030404F0004421F000410094C0
:100360004FF0000B23F0004350EA01045ED052EA44
:1003700003045BD0C3F30A54C1F30A552C44A4F21E
:10038000F3340194A0FB0254C1F3130141F4801132
:10039000C3F3130343F4801301FB024400FB034E39
:1003A000840A970A44EA815447EA8357A4FB076802
:1003B00002958D0A05FB07854FEA932C04FB0C542C
:1003C0002705029D4FEA065847EA1637B5EB0805A0
:1003D0006EEB070C870E920E47EA811742EA8312F2
:1003E000A7FB0201B6EB0B0164EB00042B0D43EA03
:1003F0000C335E1844EB1C50DA465146E7FB020111
:10040000C5F313044FEA0B3343EA14534FEA0432A3
:10041000019C43EA0603A4F10C040294009CCDE97C
:1004200000B400F047F803B0BDE8F08F00200146AB
:10043000F9E70EB5C10F80EAE0700844CA07002151
:1004400040F233438DE80E000A460B4600F032F8C6
:1004500003B000BD202A04DB203A00FA02F100209C
:1004600070479140C2F1200320FA03F319439040F2
:100470007047202A06DBCB17203A41FA02F043EA04
:10048000E07306E041FA02F3D040C2F1200291404D
:1004900008431946704710B5141E73F1000408DABA
:1004A000401C41F1000192185B411A4301D120F038
:1004B000010010BD2DE9F04D92469B4611B1B1FAF5
:1004C00081F202E0B0FA80F220329046FFF7C2FFDC
:1004D00004460F4640EA0A0041EA0B0153465A46D9
:1004E000084313D0114653EA010019D0C8F1400265
:1004F000504600F0DDF805460E4650465946424645
:10050000FFF7A8FF084305D0012004E02046394644
:10051000BDE8F08D0020054346EAE0762C433743E2
:100520000A986305E40AA0EB08000022FD0A44EAE9
:1005300047540A3002D500200146E9E701051019A9
:100540006941DDE9084500196941BDE8F04DA2E7C0
:100550002DE9F04D81EA030404F0004B21F0004541
:1005600014464FF0000A23F0004150EA050220D063
:1005700054EA01021DD0C5F30A570246C5F313031E
:10058000C1F31300C1F30A5640F4801543F48013FD
:10059000A7EB0608101BD64608F2FD3873EB0500E2
:1005A00002D308F1010801E092185B41B8F1000F95
:1005B00003DA00200146BDE8F08D00204FF48011E1
:1005C000064684460EE0171B73EB050705D3121B86
:1005D00063EB050306434CEA010C49084FEA30007F
:1005E00092185B4150EA0107EDD152EA030012D0A4
:1005F00082EA040083EA0501084305D0101BAB41E1
:1006000006D20122002306E000224FF0004302E060
:100610006FF0010253101AEB06004CEB085110EB7F
:100620000A0041EB0B01BDE8F04DFFF734BF70B598
:1006300021F0004303430CD0C1F30A550024D5EB4D
:10064000040564EB0403D617AD1AB34102DB0020A6
:10065000014670BD201841EB025170BD30B5041E3B
:1006600071F1000404DB4FF00044404264EB0101EF
:10067000141E73F1000405DB1C464FF00043524288
:1006800063EB0403994208BF904230BD064C074D0E
:1006900006E0E06840F0010394E807009847103452
:1006A000AC42F6D3FFF794FD881B0008A81B000896
:1006B000202A04DB203A21FA02F00021704721FAB7
:1006C00002F3D040C2F1200291400843194670471E
:1006D0002DE9F04D00231A461B1A8A4103DB002046
:1006E0000146BDE8F08DC1F30A52C1F3130141F494
:1006F00080154FF0000BD10702D100186D41521E3A
:100700000027044640F2FF11384601EB620A3E46DC
:100710008046024600204FF48011FFF7C9FFC2193E
:100720007141BB1846EB0100B4EB030C75EB000CF8
:1007300004D3E41A65EB000517460E46241908F1A8
:1007400001006D4180463428E3DDF91946EB0600CF
:10075000091BA84103D24FF0FF32134601E00022EB
:1007600013461BEB070046EB0A51BDE8F04DFFF7BF
:1007700092BE000010B50D48006800F002000B4961
:10078000086030B100200A4908600120094908705A
:1007900007E001200849086000200649087000F0C1
:1007A000CDF8064800680549086010BD10140240E5
:1007B00004000120080001201C000120143C01401D
:1007C0001148007828B111480068401C0F490860A2
:1007D00019E00F48006810B900200E4908600C4865
:1007E0000068401C0A4908600846006841F69021EC
:1007F000884208D10748006840F0010005490860B8
:10080000002003490860704708000120040001200F
:10081000000001201414024070B5002000220223C1
:1008200000240221274D2D6805F00C0020B104287A
:1008300006D0082834D107E0234D244E356033E03C
:10084000234D224E35602FE01E4D2D1F2D68C5F320
:1008500080541C4D2D1F2D6805F03F0154B11C4DD7
:10086000B5FBF1F5174E361F3668C6F3881605FB43
:1008700006F209E0144DB5FBF1F5124E361F36684D
:10088000C6F3881605FB06F20E4D2D1F2D68C5F325
:1008900001456D1C6B00B2FBF3F50C4E356003E0B7
:1008A000094D0A4E356000BF00BF064D2D68C5F3E7
:1008B0000315084E705D054D2D68C540034E35602B
:1008C00070BD0000083802400024F4002000012020
:1008D00040787D01DA1A00081448006840F470007E
:1008E000124908601248006840F001001049086091
:1008F00000200F49083108600D4800680D49084084
:100900000B4908600C48091D0860081F006820F4A6
:100910008020091F0860002005490C3108604FF055
:1009200000600249803908607047000088ED00E0EF
:1009300000380240FFFFF6FE1030002410B52DED08
:100940000A8B1D480068FFF774FD41EC1B0B9FEDFF
:100950001B0B53EC102BFFF7FAFC41EC190B16485C
:100960000068FFF766FD41EC1C0B9FED161BB0EE17
:100970004C0AF0EE6C0A00F04BF8B0EE40BAF0EE24
:1009800060BA9FED120B53EC102B51EC1B0BFFF7D1
:10099000DEFC41EC1A0B53EC192BFFF731FC41EC58
:1009A000180B9FED0C0B53EC102BFFF729FC0B4A97
:1009B00003C2BDEC0A8B10BD04000120C74B378970
:1009C0004160C53F0000000000000040F168E3887E
:1009D000B5F8E43ECCEEC9C342ADEB3F10000120B8
:1009E00003B401984100009850EAC12018BF0420C8
:1009F0004A0D18BF40F0010040F2FF72B2EB515FA8
:100A000008BF40F00200012808BF052002B070476F
:100A10002DE9F04D2DED040B2DED0E8B96B0DDE99B
:100A20002550279CDDF890A025F0004624F00048D2
:100A3000BAF1000F14BF0121002101EB4502FC496E
:100A400053184A1093422AD3002814BF01230023CD
:100A500003EB44030B44F7498B4220D358EA0001CF
:100A60009FEDF59B76D0DFF8D8B35D4503D1BAF1A1
:100A7000000F05D188E0BAF1000F08BF002100D0B7
:100A8000012101EB450111F5001F08D8002814BF12
:100A90000121002101EB440111F5001F0BD99DED4F
:100AA000261B9DED240B16B0BDEC0E8B04B0BDE8EB
:100AB000F04D00F069BE0027002DBCBFE14988451C
:100AC00021DAE1498845A8BF02271CDAC3451ADCB0
:100AD000DE4901EB2851142908DDC1F1340220FA66
:100AE00002F101FA02F282420DD108E058B9C1F1D7
:100AF000140228FA02F101FA02F2424503D101F090
:100B00000101C1F1020756EA0A0124D1002C22DAC0
:100B1000002D18BF022F01D0012F0AD0022000F0B3
:100B20007FFE16B0BDEC0E8B04B0BDE8F04D00F0BA
:100B300013BE022000F074FE00F00EFE51EC100B0C
:100B400081F0004141EC100B16B0BDEC0E8B04B0EF
:100B5000BDE8F08D18E09FEDBEAB9FEDBF8B002888
:100B600071D1B848804522D105F1804010F5801040
:100B700008BFBAF1000F07D0B3450ADC002CA8BFAC
:100B80009DED260BE0DA0DE0B0EE490AF0EE690AC1
:100B9000DAE7002C06DA9DED260B51EC100B81F004
:100BA00000416FE0AE48784490ED000BCCE7D845AB
:100BB0004DD1002C48DA2EB186423AD1BAF1000F5D
:100BC00042D126E0BAF1000F13D0022000F028FE37
:100BD00000F0F6FD8DED020B9DED240B8DED000B6D
:100BE00010EE900A039961F31E0003909DED020B35
:100BF000AAE78DED02AB9DED240B1AEE901A10EED4
:100C0000900A8DED000B61F31E0003909DED020B29
:100C10009AE78DED028B9DED240B18EE901A10EEE5
:100C2000900A8DED000B61F31E0003909DED020B09
:100C30008AE709DA9DED240B51EC190B53EC102BCC
:100C4000FFF786FC1EE020E09DED240B7CE786424A
:100C50001BDAB4F1804F0DD0A4F10050B0F1FF5079
:100C600013D1002D11DB9DED240B51EC100B00F086
:100C7000FDFE07E09DED240B53EC102B51EC100B07
:100C800000F0C2BC41EC100B5EE79DED240B51EC73
:100C9000100B00F0CBFDBAF1000FCDE90E0142D1EF
:100CA0009FED710B46B3A6F1E040B0F17F600CD030
:100CB0005E4538D1002D00DAA7B3022F0CBF01200A
:100CC0004FF0FF30FFF7B5FBDCE7002D01DD002C16
:100CD0000DDA002D01DD002C1FDB002D16DA002CB3
:100CE00014DB012F08BF9FED620B3FF42DAFB0EE78
:100CF0004A0AF0EE6A0A27E7022F18BF002D0CD02F
:100D0000012F0AD1002DFFF61FAF06E0002DB8BF5E
:100D1000002C08DA012F3FF417AFB0EE480AF0EECE
:100D2000680A11E71BE0012000EBE57050EA0701BB
:100D300015D0791EB0EE498AF0EE698A084308BFE3
:100D40009FED4D8B4E480025804570DD4D494E4846
:100D5000884514DDB0420DDB002C19DB2FE00120AB
:100D600000F05EFD16B0BDEC0E8B04B0BDE8F04D9A
:100D700000F016BDB34502DC002C09DC1FE0864202
:100D800002DA002C1BDA03E05E452BDD002C16DDB9
:100D9000022000F045FD00F013FD8DED020B53EC39
:100DA0001A2B51EC180BFFF7D2FACDE90001039989
:100DB000019861F31E0003909DED020BC4E6022032
:100DC00000F02EFD00F00CFD10EE901A18EE900AC7
:100DD0008DED020B8DED008B61F31E0003909DEDF8
:100DE000020BB1E69DED0E0B53EC192B51EC100BE1
:100DF000FFF7A7FA9FED260BCDE9080153EC102B66
:100E00009DED080B51EC100BFFF7A1FA9FED221B93
:100E100053EC112BFFF798FA9DED081B53EC112BA7
:100E2000FFF795FA9FED1E1B53EC112B3CE08CE075
:100E3000FFFF1F00FFFF0F00000000000000F03F59
:100E40000000F03F0000F07F0000404301FCFFFF86
:100E5000000000000000F07F000000000000000023
:100E6000D60F00000000000000000000000000801D
:100E7000000000000000F0FF000000000000F0BFD4
:100E80000000E0410000F043FFFFEF3F00000000E2
:100E9000000000000000D03F555555555555D53F31
:100EA000000000000000E03FFFF74EFA9DED080B48
:100EB00041EC1A0B53EC102B51EC100BFFF747FAD7
:100EC00053EC1A2BFFF743FA41EC1A0B9FEDFE0B84
:100ED00053EC102B9DED080B51EC100BFFF737FA7C
:100EE00041EC1B0B9FEDFA0B51EC1A0B53EC102B42
:100EF000FFF72DFA41EC1A0B9FEDF70B53EC102B7B
:100F00009DED080B51EC100BFFF721FA53EC1A2B57
:100F1000FFF717FA41EC1A0B51EC1B0B53EC1A2B91
:100F2000FFF76EF90690CDE906519DED060B53ECE7
:100F30001B2B51EC100BFFF704FA53EC1A2BFFF7A5
:100F400003FA41EC100B00F0A1B90020B6F5801FA8
:100F50000EDA9FEDE30B53EC102B9DED0E0B51ECD5
:100F6000100BFFF7F4F9CDE90E016FF034000E46D7
:100F700000EB2650A0F2FF37C6F31300DA4940F029
:100F80007F6646F040568842D8BF002408DDD74926
:100F90008142C8BF012403DC0024A6F580167F1C13
:100FA000D348784400EBC4000F9690ED00CB9DED44
:100FB0000E0B53EC1C2B51EC100BFFF7C2F99DEDFF
:100FC0000E0B41EC1B0B53EC1C2B51EC100BFFF7E1
:100FD00017F941EC100B51EC190B53EC102BFFF7E8
:100FE000B7FA41EC1D0B51EC1B0B53EC1D2BFFF71B
:100FF000AEF941EC1A0BBF488DED10AB784410955B
:1010000090ED000B4FF0005040EA660000EB84408A
:101010008DED080B00F5002009909DED080B53ECB9
:101020001C2B51EC100BFFF78CF99DED0E1B53ECB4
:10103000112BFFF789F941EC100B53EC102B9DEDB0
:10104000100B51EC100BFFF782F99DED080B41ECF2
:101050001C0B53EC102B9DED100B51EC100BFFF7FC
:1010600076F953EC1B2BFFF76FF953EC1C2BFFF7B2
:1010700068F953EC1D2BFFF76AF941EC1C0B53EC9C
:101080001A2B51EC1A0BFFF762F941EC1B0B9A4833
:101090000621B0EE4B0AF0EE6B0A784400F0E0FA5D
:1010A000B0EE401AF0EE601AB0EE41DAF0EE61DA1E
:1010B00053EC1B2B51EC1B0BFFF749F953EC1D2B89
:1010C000FFF745F99DED100B41EC1B0B53EC1A2B70
:1010D00051EC100BFFF794F853EC1C2BFFF737F98A
:1010E00053EC1B2BFFF78CF89DED100B41EC1B0B09
:1010F00053EC102B51EC100BFFF729F941EC1D0BB1
:101100009FED7FEB53EC1E2BFFF77AF853EC1B2B74
:10111000FFF776F80890CDE908519DED080B53ECE8
:101120001E2B51EC100BFFF70CF953EC1D2BFFF7A6
:1011300008F953EC1B2BFFF707F99DED080B41EC69
:101140001D0B53EC102B9DED100B51EC100BFFF70A
:10115000FEF841EC1B0B53EC1A2B51EC1D0BFFF767
:10116000F6F89DED080B41EC1A0B53EC102B51ECEB
:101170001C0BFFF7ECF853EC1A2BFFF741F841EC8E
:101180001A0B51EC1B0B53EC1A2BFFF739F80C9090
:10119000CDE90C519DED0C0B53EC1B2B51EC100BBE
:1011A000FFF7CFF853EC1A2BFFF7CEF841EC1B0BEF
:1011B0009FED550B53EC102B9DED0C0B51EC100BD0
:1011C000FFF7C5F841EC1A0B9FED510B51EC1B0BCF
:1011D00053EC102BFFF7BBF841EC1B0B9FED4E0BB4
:1011E00053EC102B9DED0C0B51EC100BFFF7AFF8EF
:1011F00053EC1B2BFFF704F841EC100B48487844E4
:1012000000EBC40090ED001B51EC100B53EC112BC4
:10121000FEF7F6FF41EC1B0B3846FFF70AF9CDE964
:10122000080153EC1B2B51EC1A0BFEF7E9FF41ECC4
:10123000100B3C48784400EBC40090ED00CB51EC1F
:10124000100B53EC1C2BFEF7DBFF9DED081B53EC42
:10125000112BFEF7D5FF0690CDE906519DED080B49
:1012600053EC102B9DED060B51EC100BFFF769F8BA
:1012700053EC1C2BFFF765F853EC1A2BFFF761F8C2
:1012800053EC1B2BFFF760F841EC100B9DED261B78
:1012900053EC102B8DED001B00959DED260B51ECB2
:1012A000100BFFF754F89DED000B41EC1A0B53ECBB
:1012B000102B9DED260B51EC100BFFF742F89DED26
:1012C000061B53EC112B2FE0000000604715F73F81
:1012D000FE822B654715F73F44DF5DF80BAE543EA9
:1012E00000000000000040438E9803007AB60B0017
:1012F000520B0000800B00008A0A00000000000072
:101300000000000000000840000000E009C7EE3FB8
:10131000FD033ADC09C7EE3FF5015B14E02F3EBE4A
:1013200016090000D0080000FFF711F853EC1A2B43
:10133000FEF766FF9DED060B41EC1A0B53EC102BEC
:101340009DED000B51EC100BFFF701F8CDE90C01FE
:101350009DED0C0B51EC1A0B53EC102BFEF750FFCC
:10136000CDE902010C46AA498C422FDB611A0843E1
:1013700018D19DED0C0B53EC102B9DED020B51EC95
:10138000100BFEF7DEFF41EC1B0B9FEDA30B51ECA6
:101390001A0B53EC102BFEF733FF53EC1B2BFFF70C
:1013A0005DF92DD2022000F03BFA00F009FA10EEB0
:1013B000901A18EE900A8DED020B8DED008B61F303
:1013C0001E0003909DED020BFFF7BEBB944A24F074
:1013D0000041914214D39349214408437FF4EFAC78
:1013E0009DED0C0B53EC102B9DED020B51EC100BF3
:1013F000FEF7A7FF53EC1A2BFFF730F97FF6DFACAF
:1014000024F000408849894A002601EB205182429D
:101410002BDA481C4FF4801121FA00F02044844A52
:10142000C0F30A517A44A1F2FF3192ED000B814AD8
:101430008DED080BCA4020EA0202C0F3130040F40D
:101440008010C1F1140120FA01F60992002CB8BFF6
:1014500076429DED080B53EC102B9DED0C0B51ECDF
:10146000100BFEF76EFFCDE90C019DED0C0B51EC5E
:101470001A0B53EC102BFEF7C3FE9FED6F0B089079
:10148000CDE9085153EC102B9DED080B51EC100BDE
:10149000FEF75DFF41EC1B0B9FED690B53EC102B2E
:1014A0009DED080B51EC100BFEF751FF9DED0C0B61
:1014B00041EC1C0B53EC102B9DED080B51EC100B69
:1014C000FEF73FFF53EC1A2BFEF73EFF9FED5E1B2E
:1014D00053EC112BFEF73BFF53EC1C2BFEF790FE59
:1014E00041EC1A0B51EC1B0B53EC1A2BFEF788FE48
:1014F000CDE902019DED020B53EC1B2B51EC100BBF
:10150000FEF71FFF53EC1A2BFEF71EFF9DED020B9B
:1015100041EC1A0B53EC102B51EC100BFEF717FF9C
:10152000CDE908014A489DED080B0521784400F0FB
:1015300097F89DED081B51EC100B53EC112BFEF7A7
:1015400006FF9DED021B53EC112BFEF7FDFECDE9CE
:1015500006019DED020B53EC1A2B51EC100BFEF71C
:10156000F6FE53EC1A2BFEF74BFE9FED3B0B41ECC6
:101570001A0B53EC102B9DED060B51EC100BFEF7E4
:10158000E0FE9DED060B41EC1B0B53EC102B9DED8B
:10159000020B51EC100BFEF7DAFE53EC1B2BFEF79F
:1015A000D7FF53EC1A2BFEF7CCFE9DED021B53EC3C
:1015B000112BFEF7C6FE53EC192BFEF7C5FECDE945
:1015C000020101EB065001150029C8BF039015DC8C
:1015D0009DED020B324651EC100BFFF728F8FFF798
:1015E000FFF9042808BF00F0FBF832469DED020B1E
:1015F00051EC100BFFF71BF8CDE902019DED020B3A
:1016000051EC180B53EC102BFEF7A1FEFFF73ABB81
:101610000000904000000000FE822B654715973CBB
:1016200000CC904000346F3F01FCFFFF0000E03F22
:1016300058070000FFFF0F0000000000432EE63FA8
:10164000396CA80C615C20BEEF39FAFE422EE63FF1
:10165000280600000000000000000000000000401C
:1016600070B504462DED028B4D1E00EBC500B0EEAB
:10167000408AF0EE608A90ED000B35F0060017D03E
:1016800053EC182B51EC100BFEF761FE41EC100BE4
:101690006D1E04EBC50090ED001B51EC100B53ECDC
:1016A000112BFEF7ADFD41EC100B35F00600E7D134
:1016B000022D36D0042D1CD0062D1CBFBDEC028B94
:1016C00070BD53EC182B51EC100BFEF740FE94ED5F
:1016D0000A1B53EC112BFEF793FD53EC182BFEF76E
:1016E00036FE94ED081B53EC112BFEF789FD41ECFF
:1016F000100B53EC182B51EC100BFEF728FE94ED59
:10170000061B53EC112BFEF77BFD53EC182BFEF759
:101710001EFE94ED040B53EC102BFEF771FD41EC13
:10172000100B53EC182B51EC100BFEF710FE94ED40
:10173000021B53EC112BFEF763FD53EC182BFEF745
:1017400006FE94ED001B53EC112BFEF759FDBDEC8A
:10175000028B41EC100B70BD9FED070B10B553ECE5
:10176000102B9FED070B51EC100BFEF7F1FE41EC37
:10177000100B10BD00000000000000000000000081
:10178000000000000000F03F10B553EC112B51ECAD
:10179000100BFEF735FD41EC100B10BD00000000F2
:1017A0009FED050B10B553EC102B51EC100BFEF711
:1017B000CFFE41EC100B10BD000000000000000047
:1017C0009FED050B10B553EC102B51EC100BFEF7F1
:1017D000BEFD41EC100B10BD0000000000000070C9
:1017E0009FED050B10B553EC102B51EC100BFEF7D1
:1017F000AEFD41EC100B10BD000000000000001019
:1018000002E008C8121F08C1002AFAD170477047C9
:10181000002001E001C1121F002AFBD17047000027
:1018200001490860704700002400012082B0CDE922
:10183000000121F0004001909DED000B02B051EC41
:10184000100B70477C48006840F0FF007A49086040
:1018500079481430006840F48040774914310860BA
:10186000081F006840F0FF00091F08607348006807
:1018700040F001007149086070480830006840F08D
:1018800003006E4908310860081F0068091F0860DE
:101890006A480C30006840F0050068490C31086067
:1018A000FEF7BAFF66480068664AB0FBF2F1481ED0
:1018B000B0F1807F00D31BE0481E4FF0E022506162
:1018C00050170F22002804DB13071C0E5E4B1C541C
:1018D00006E013071D0E5D4B00F00F04241F1D557D
:1018E00000BF00204FF0E02290610720106100BF90
:1018F0005748006840F05000554908605548006856
:1019000040F0020053490860081D006840F00200E2
:10191000091D0860081D006840F00200091D0860EC
:10192000081D006840F00200091D0860072000281B
:1019300009DB00F01F02012191404209920002F1EF
:10194000E022C2F8001100BF4348006820F0407058
:10195000414908600846006840F0007008600020B7
:10196000091D0860081D006820F04070091D08600E
:101970000846006840F080700860081D006820F08C
:101980004070091D08600846006840F080700860DB
:101990004FF40031304841623048006840F00100A7
:1019A0002E4908600F202D491431086044F620604C
:1019B000091D086029480838006840F001002749DF
:1019C0000839086025481438006840F001002349B0
:1019D0001439086060202149091D08601F480C3037
:1019E000006840F001001D490C3108604FF4FF70A1
:1019F0001A49203108601EE01948006801281AD1F0
:101A00001848006869301749086008460068B0F552
:101A1000166F02DD4FF4FF700860124800680F492E
:101A200020310860002000E0401C0F498842FBDBA9
:101A300000200B490860DFE7303802400014024004
:101A400020000120A086010000E400E018ED00E085
:101A500008380140003C0140000C024014080040DE
:101A60001C00012018000120400D030000B52DEDE1
:101A7000048B83B041EC190BFEF72AFE41EC180BE6
:101A800018EE100A18EE901A8DED008B002818BF82
:101A90000120084320F00040C0F17F6000F1E040E9
:101AA000C00F14D019EE101A19EE900A8DED009B9C
:101AB000002918BF0121084320F00040C0F17F60D9
:101AC00000F1E040C00F04BF0120FFF7A9FE51EC78
:101AD000180B03B0BDEC048B00BD0000000000003B
:101AE00000000102030406070809000000000102CB
:101AF0000304000000000000000000000000F03FB0
:101B0000000000000000F83F00000000000000009E
:101B10000000004003B8E23F0000000000000000A9
:101B200006D0CF43EBFD4C3E033333333333E33F37
:101B3000FFAB6FDBB66DDB3F4D268F515555D53F63
:101B400001411DA96074D13F65DBC9934A86CD3F31
:101B5000EF4E454A287ECA3F3E5555555555C53F1F
:101B600093BDBE166CC166BF2CDE25AF6A56113F11
:101B7000F16BD2C541BDBBBED0A4BE726937663E13
:101B80000000000000000000A81B00080000012069
:101B90002800000000180008D01B000828000120C1
:101BA0000004000010180008000000000000000001
:101BB0000000000000000000000000000000000025
:101BC00095010000000000000024F4000000000067
:04000005080001DD11
:00000001FF
